:100000000C9463060C948B060C948B060C948B0654
:100010000C948B060C948B060C948B060C948B061C
:100020000C948B060C948B060C94E5110C945712CF
:100030000C948B060C948B060C948B060C948B06FC
:100040000C948B060C94D0080C948B060C948B06A5
:100050000C948B060C948B060C948B060C949807CE
:100060000C948B060C948B060C948B060C948B06CC
:100070000C948B060C948B060C948B060C948B06BC
:100080000C94E2070C948B060C948B060C948B0654
:100090000C948B060C948B060C948B060C948B069C
:1000A0000C948B060C948B060C948B06091E2B1D4E
:1000B0002B1D3A1D321D401DBF1DBF14C214B114AB
:1000C000B514B914E314E314E314C614CA14CE141B
:1000D000D414D814E314DE14F0F89C8E8783878E32
:1000E0009CF8F00000FEFF0303030303070EFCF877
:1000F0000000FEFF0303030303070EFCF80000FFEC
:10010000FF00000000000000FFFF0000FEFF8383EF
:10011000838383C7EE7C380000F8FC0E07030303DB
:10012000070EFCF800003F7FE0C08080C0E07F3F0A
:10013000FFFF01010101010101FFFF0000FFFF0CB2
:100140000C0C0C1C3E77E3C100007FFFC0C0C0C098
:10015000C0E0703F1F00001F3F70E0C0C0C0E070F3
:100160003F1F00007FFFC1C1C1C1C1E3773E1C003A
:10017000001F3F70E0C0C0C0E0703F1F00000000E3
:100180000001FFFF01000000000000002400270024
:100190002A002D003000D5F08D14A1C881CFD9F1EF
:1001A000AF20000408020110408040102040804031
:1001B00080080204018040201002011080102040BD
:1001C000402000000000250028002B002E003100F8
:1001D00004040404040304050202020204030202EC
:1001E00002020606060606060404020202040414BD
:1001F00002130212021502070208020A020A010B88
:10020000020B010902090104010C010601000000B2
:10021000000000000000C0202020202020202020FE
:1002200020202020202020202020202020202020CE
:1002300020202020202020202020202020202020BE
:100240002020202020C00000000000000000C0602E
:1002500020E02060C000FC0082840000000678805E
:1002600000FE00807CFE00FE000202000000000094
:100270000000FC0002FC00FE000000FE00FE000288
:100280000200FE0002FC00C06020E02060C001030C
:100290000103010301003F00407F007F0004047F51
:1002A000007F007F007F007F0041410000000000D0
:1002B00000003F00403F000700403807007F00413A
:1002C00041007F00017E00010301030103010000E2
:1002D00000000000000003040404040404040404F7
:1002E00004040404040404040404040404040404CE
:1002F00004040404040404040404040404040404BE
:1003000004040404040300000000000000000000D6
:1003100000FC020200FE00E000FE00FE00020200FF
:100320000E1080700E000200FE02020000FE0000AF
:100330000000FE00020200FE000000FE00FE0002BF
:100340000200FE000000000202FC000000000000AD
:1003500000FF0000007F0000077F007F0041410098
:1003600078040007780000007F000000007F004054
:1003700040007F004141000700403807007F0041F6
:1003800041007F004040000000FF0000000000002E
:1003900000FF000000FE0002FC00FE0002FC00FE68
:1003A000000202007C000204007C00020400000045
:1003B00000FE0002FC00FC0002FC00FE00FE00FE4D
:1003C00000FE00E000FE000000FF00000000000052
:1003D000003F4040007F000100007F00017E007F61
:1003E000004141002000413E002000413E0000004D
:1003F000007F00403F003F00403F003F003F403F44
:10040000007F0000077F0040403F000000003838B8
:100410004482FE00000038384482FE0054920000FE
:1004200000000000000000000000000000000000CC
:1004300000000000000000000000000000000000BC
:1004400000000000001824001824240024180000D4
:100450001C201C201C00102838003808300048548C
:1004600028003C14280018342800380830002810D0
:1004700028003400380830000000000000000000B0
:100480000000000000000000000000001C201C0014
:100490003E0020001C221C0020003E0000007C8248
:1004A000E4007C827C00BEFE7C3810000000008CE2
:1004B0008C800000808C8C98988000008098987EBA
:1004C000FFFFFFFFFFFF7E7E8181818181817E00B2
:1004D0000000FC020200FE0002FC00FC0002FC0026
:1004E000FC00020400FE00900E00FE00020200026A
:1004F00000FE0202000202020202000000000000F0
:1005000000000000000000000202FC0000000000EB
:100510000000FF0000007F000100003F00403F009E
:100520003F004020007F00037C007F00414100002D
:10053000007F00000000000000000000000000003C
:1005400000000000000000000000FF0000000000AC
:100550000000FF000000000000000000000000009C
:1005600000000000FE008282000200FE0200FC008B
:10057000828400FE0080FE000200FE020200FE00F7
:10058000020200FE0002FC000000FF00000000006C
:1005900000003F40404040404040404040404040DC
:1005A000404040007F0000000040007F40003F00CE
:1005B000407F007F00007F0000007F0000007F0080
:1005C0004141007F00017E0040403F0000000003E9
:1005D00003003636808080000080808000363680C0
:1005E0008080000080808080808000008080803655
:1005F0003600808080000080808036360000000059
:100600008C8C800000808C8C000C0C808080000022
:10061000808C8C0C0C008C8C8000008080808C8CFA
:10062000800000808C8C0000008C8C80000080801A
:10063000800C0C008080800000808C8C000C0C48AA
:1006400048400000808C8C8C8C8000004048480022
:10065000000000003E5B4F5B3E3E6B4F6B3E1C3E1E
:100660007C3E1C183C7E3C181C577D571C1C5E7F32
:100670005E1C00183C1800FFE7C3E7FF00182418B1
:1006800000FFE7DBE7FF30483A060E2629792926E6
:10069000407F050507407F05253F5A3CE73C5A7FD0
:1006A0003E1C1C08081C1C3E7F14227F22145F5F26
:1006B000005F5F06097F017F006689956A60606060
:1006C000606094A2FFA29408047E040810207E209B
:1006D0001008082A1C08081C2A08081E10101010F0
:1006E0000C1E0C1E0C30383E3830060E3E0E060036
:1006F0000000000000005F00000007000700147FFA
:10070000147F14242A7F2A12231308646236495660
:1007100020500008070300001C2241000041221C59
:10072000002A1C7F1C2A08083E0808008070300040
:100730000808080808000060600020100804023E55
:100740005149453E00427F40007249494946214196
:10075000494D331814127F1027454545393C4A4905
:100760004931412111090736494949364649492944
:100770001E00001400000040340000000814224154
:100780001414141414004122140802015909063EDD
:10079000415D594E7C1211127C7F494949363E41D8
:1007A0004141227F4141413E7F494949417F0909F9
:1007B00009013E414151737F0808087F00417F4194
:1007C000002040413F017F081422417F40404040CB
:1007D0007F021C027F7F0408107F3E4141413E7F23
:1007E000090909063E4151215E7F0919294626491A
:1007F00049493203017F01033F4040403F1F2040F1
:10080000201F3F4038403F631408146303047804FA
:10081000036159494D43007F4141410204081020C2
:10082000004141417F040201020440404040400039
:100830000307080020545478407F28444438384443
:10084000444428384444287F385454541800087EBF
:10085000090218A4A49C787F0804047800447D4011
:10086000002040403D007F1028440000417F4000B0
:100870007C047804787C080404783844444438FCC8
:100880001824241818242418FC7C0804040848544C
:1008900054542404043F44243C4040207C1C204009
:1008A000201C3C4030403C44281028444C90909000
:1008B0007C4464544C44000836410000007700003A
:1008C000004136080002010204023C2623263C1E99
:1008D000A1A161123A4040207A385454555921550B
:1008E000557941215454784121555478402054552C
:1008F00079400C1E52721239555555593954545479
:100900005939555454580000457C410002457D42F8
:100910000001457C40F0292429F0F0282528F07CAE
:10092000545545002054547C547C0A097F4932496F
:100930004949323248484832324A4848303A4141BF
:10094000217A3A42402078009DA0A07D3944444459
:10095000393D4040403D3C24FF2424487E494366C5
:100960002B2FFC2F2BFF0929F620C0887E0903209E
:10097000545479410000447D413048484A3238405F
:1009800040227A007A0A0A727D0D19317D262929C2
:100990002F28262929292630484D402038080808C4
:1009A0000808080808382F10C8ACBA2F102834FAE5
:1009B00000007B000008142A142222142A1408952F
:1009C00000220095AA005500AAAA55AA55AA00001F
:1009D00000FF00101010FF00141414FF001010FF8F
:1009E00000FF1010F010F0141414FC001414F700A1
:1009F000FF0000FF00FF1414F404FC141417101F70
:100A000010101F101F1414141F00101010F00000FD
:100A100000001F101010101F10101010F010000018
:100A200000FF101010101010101010FF1000000028
:100A3000FF140000FF00FF00001F10170000FC045F
:100A4000F414141710171414F404F40000FF00F742
:100A500014141414141414F700F7141414171410A5
:100A6000101F101F141414F4141010F010F00000D4
:100A70001F101F0000001F14000000FC140000F0F5
:100A800010F01010FF10FF141414FF141010101F9A
:100A900000000000F010FFFFFFFFFFF0F0F0F0F0AB
:100AA000FFFFFF0000000000FFFF0F0F0F0F0F38C8
:100AB000444438447C2A2A3E147E02020606027E02
:100AC000027E0263554941633844443C04407E2021
:100AD0001E2006027E020299A5E7A5991C2A492A32
:100AE0001C4C7201724C304A4D4D303048784830C1
:100AF000BC625A463D3E494949007E0101017E2AB9
:100B00002A2A2A2A44445F444440514A44404044EB
:100B10004A51400000FF0103E080FF000008086B1D
:100B20006B083612362436060F090F060000181817
:100B30000000001010003040FF0101001F01011EE5
:100B400000191D1712003C3C3C3C00000000000650
:100B5000011501260137014A015D01720188019FDB
:100B600001B801D201EE010B022A024B026E029380
:100B700002BA02E40210033F037003A403DC03176C
:100B80000455049704DD0427057505C80520067D76
:100B900006E0064907B8072D08A9082D09B9094D2F
:100BA0000AEA0A900B400CFA0CC00D910E6F0F5A16
:100BB0001053115B1272139A14D41520178018F574
:100BC00019801B231DDE1EB420A622B524E4263482
:100BD00029A72B402E0031EA330037453ABC3D6847
:100BE000414C456B49C84D68524F57805C006210BC
:100BF000111213151617181A1C1D1F21232527293A
:100C00002C2E3134373A3E4145494E52575C62688A
:100C10006E757B838B939CA5AFB9C4D0DCE9F700DC
:100C200000000200090F0000030401000C00000096
:100C30000000000000000000000000000000080BA1
:100C40000002020201000904000001020200000586
:100C500024001001052401010104240206052406D4
:100C600000010705810310004009040100020A0089
:100C70000000070502024000000705830240000053
:100C80000403090441726475696E6F204C4C430083
:100C900041726475626F7900120100020000004029
:100CA0004123368000010102030112010002EF021C
:100CB000014041233680000101020301001C3E7EF9
:100CC000FC5E261C8F2111241FBECFEFDAE0DEBFB1
:100CD000CDBF28E0A8E4B1E001C01D92AC36B20758
:100CE000E1F711E0A0E0B1E0E8EAF4E402C0059029
:100CF0000D92A834B107D9F716E0C3E6D6E004C0D8
:100D00002197FE010E94D621C236D107C9F70E9461
:100D10006A170C9452220C9400003FB7F89480910B
:100D2000D2039091D303A091D403B091D50326B5FB
:100D3000A89B05C02F3F19F00196A11DB11D3FBF13
:100D4000BA2FA92F982F8827820F911DA11DB11DA1
:100D5000BC01CD0142E0660F771F881F991F4A959D
:100D6000D1F70895CF92DF92EF92FF921F93CF9326
:100D7000DF93E82FF0E0EF5EFE4F1081E62FF0E00A
:100D8000603330F4E151F44FE491CE2FD0E006C04F
:100D9000EE0FFF1FE151F54FC591D4916E01E12C8B
:100DA000F12C60E074E284EF90E0A70196010E94CC
:100DB000F721DA01C9010197A109B109009721E0E2
:100DC000A207B10578F060E970ED83E090E0A7013B
:100DD00096010E94F721DA01C9010197A109B10921
:100DE00023E001C021E01130C9F0133051F53091FA
:100DF0009100387F232B209391009093990080934A
:100E00009800D093CF03C093CE0381E08093CD03AD
:100E10008091710082608093710013C03091D00383
:100E200031110FC030918100387F232B2093810036
:100E3000909389008093880080916F0082608093F6
:100E40006F00DF91CF911F91FF90EF90DF90CF90D7
:100E50000895E82FF0E0EF5EFE4F8081813019F0B9
:100E6000833089F008958091D003811122C0809150
:100E70006F008D7F80936F009091BA03E091B8036B
:100E8000F091B9030CC01092CD038091CC03811175
:100E900010C09091CA03E091C803F091C90380810A
:100EA000282F30E0892F90E080959095822393231E
:100EB000808308958091AF03089508958F929F9243
:100EC000AF92BF92CF92DF92EF92FF926B017C01C3
:100ED0000E948D064B015C01C114D104E104F104B0
:100EE000F1F00E948D06DC01CB0188199909AA094D
:100EF000BB09883E9340A105B10570F321E0C21AF9
:100F0000D108E108F10888EE880E83E0981EA11C44
:100F1000B11CC114D104E104F10419F7DDCFFF9035
:100F2000EF90DF90CF90BF90AF909F908F900895FB
:100F30001F920F920FB60F9211242F933F938F930E
:100F40009F93AF93BF938091520190915301A091D1
:100F50005401B09155013091D10323E0230F2D3777
:100F600020F40196A11DB11D05C026E8230F0296AD
:100F7000A11DB11D2093D103809352019093530181
:100F8000A0935401B09355018091D2039091D30363
:100F9000A091D403B091D5030196A11DB11D8093FA
:100FA000D2039093D303A093D403B093D503BF91FE
:100FB000AF919F918F913F912F910F900FBE0F9006
:100FC0001F9018951F920F920FB60F9211242F9316
:100FD0003F934F935F936F937F938F939F93AF93C1
:100FE000BF93CF93DF93EF93FF938091CD0388233B
:100FF00049F08091CC03811105C08091CB038823F7
:1010000009F4ABC08091C703882309F4B6C080916E
:10101000C3039091C403A091C503B091C603892B6B
:101020008A2B8B2B09F4A9C08091C3039091C40330
:10103000A091C503B091C6030197A109B10980939E
:10104000C3039093C403A093C503B093C603892B35
:101050008A2B8B2B09F091C0D1E0E091C103F09174
:10106000C2039F012F5F3F4F3093C2032093C10300
:101070008491982F907FC82FCF70903821F48C2FB7
:101080000E942907EACF9039F9F4E0913F08F091E6
:10109000400809958D278093CB03E091C103F0911F
:1010A000C203CF0101969093C2038093C103649160
:1010B0008091C003C81788F6C13009F058C08091EC
:1010C000BF038111CACF53C097FD3AC03296F09347
:1010D000C203E093C103F901249130E0382BA091C1
:1010E000CE03B091CF030E9443226C507E4F8F4FAE
:1010F0009F4F28EE33E040E050E00E9421222093F1
:10110000C3033093C4034093C5035093C603809137
:10111000C3039091C403A091C503B091C603892B6A
:101120008A2B8B2B51F581E090E0A0E0B0E080931A
:10113000C3039093C403A093C503B093C6031DC01B
:10114000903E29F41092C2031092C10386CF903FC3
:1011500009F083CF1092C70310C08091CA03E091B9
:10116000C803F091C9039081892780834BCF67FD25
:1011700074CF8C2F0E94B20670CFFF91EF91DF9158
:10118000CF91BF91AF919F918F917F916F915F911F
:101190004F913F912F910F900FBE0F901F90189578
:1011A0001F920F920FB60F9211242F933F938F939C
:1011B0009F93AF93BF93EF93FF938091D0038823C6
:1011C00009F44FC08091BB039091BC03A091BD0373
:1011D000B091BE03892B8A2B8B2B51F18091BA03DE
:1011E000E091B803F091B9039081892780838091C1
:1011F000BB039091BC03A091BD03B091BE03181630
:1012000019061A061B06D4F58091BB039091BC0306
:10121000A091BD03B091BE030197A109B1098093CC
:10122000BB039093BC03A093BD03B093BE0326C041
:101230001092CC031092D00380916F008D7F809329
:101240006F009091BA03E091B803F091B9038081E7
:10125000282F30E0892F90E080959095822393236A
:101260000CC08091CB03811109C08091BA03E09139
:10127000B803F091B903908189278083FF91EF91A2
:10128000BF91AF919F918F913F912F910F900FBE82
:101290000F901F901895CF93DF939091C0039230D9
:1012A00009F480C0292F30E0F901EF5EFE4FD081B4
:1012B000F901EA54FC4F8083913031F42091B60358
:1012C000281302C09093BF03C82F9F5F9093C00361
:1012D00061E00E94F714D13019F0D33061F162C09F
:1012E00080916400877F8093640010928000109248
:1012F00081008091810088608093810080918100CD
:101300008160809381008C2F90E0FC01E053FE4FC0
:10131000E491F0E0EE0FFF1FEE53FE4F2591349164
:101320003093B9032093B803FC01ED55FE4F84912F
:101330008093BA0337C080916500877F80936500F2
:10134000109290001092910080919100886080939B
:101350009100809191008160809391008C2F90E0AA
:10136000FC01E053FE4FE491F0E0EE0FFF1FEE535F
:10137000FE4F259134913093C9032093C803FC019B
:10138000ED55FE4F84918093CA038091C00388235A
:1013900021F06CE380E00E94B20680E0DF91CF9103
:1013A0000C942907DF91CF9108958FB12CB193B19F
:1013B00030E02095309520743327A90123E055951E
:1013C00047952A95E1F7292F30E020953095207137
:1013D00033273595279535952795242B8095807F44
:1013E000822B08951F93CF93DF931F92CDB7DEB763
:1013F000162F682F8AE049830E949414612F8BE096
:101400000E9494144981642F89E00F90DF91CF915D
:101410001F910C94941483B7817F83BF83B781603D
:1014200083BF889583B78E7F83BF0895E0914F0176
:10143000F0915001908180914E01892B8083E09141
:101440004C01F0914D01908180914B018095892351
:101450008083E0914F01F0915001908180914E0185
:101460008095892380830895E0914C01F0914D018E
:10147000908180914B01892B8083E0914F01F09105
:101480005001908180914E01809589238083089539
:101490008EBD00000DB407FEFDCF8EB5089561E04E
:1014A00085E00E94F71461E08DE00E94F71481E06E
:1014B0008093AF0308956038710518F540345105E5
:1014C00000F5E42FE695E695E695F0E047705527A0
:1014D000F695FE2FEE27F795E7956E0F7F1FFB0120
:1014E000E151FC4F81E090E001C0880F4A95EAF796
:1014F000222319F09081892B03C080959081892344
:10150000808308952F923F924F925F926F927F92C5
:101510008F929F92AF92BF92CF92DF92EF92FF9203
:101520000F931F93CF93DF93CDB7DEB72A970FB6F4
:10153000F894DEBF0FBECDBFFC016A3069F4248D84
:10154000808D918D38E0239F800D911D1124918F06
:10155000808F178A168AB0C06D3009F4ADC09A87A3
:101560008987E48C338D828D8983208C318C068928
:10157000178900381105C4F0A985BA855C962C91AD
:101580005C97422F50E056968D919C915797B6E00C
:101590002B9F800D911D1124E985FA85978B868BF1
:1015A000258D211173C088C0F0E42F16310424F773
:1015B000C80125E0E29E800D911D11241816190620
:1015C000DCF68E2D90E09B838A83C101A8E0EA9E21
:1015D000800D911D11241816190674F625E0629FDE
:1015E000F0011124FD83EC83C12CD12C89859A85CF
:1015F00004969F838E8395E0C916D10441F0EC8157
:10160000FD81EC0DFD1DE15BF94FF49001C0F12C63
:10161000310188E0482EF0FC02C0532E01C05980F1
:1016200051100CC0A9813A1309C0F6944A94EA817A
:10163000FB816E0E7F1E4110EECF1BC058018A2D1C
:10164000801B8E1590F74301882D86198E1568F43E
:10165000252DA401B5018E819F8138870E945B0AE8
:10166000FFEF8F1A9F0A3885EFCF2FEFA21AB20A29
:10167000E6CF8FEFC81AD80AAA81BB810A0F1B1FB9
:10168000B6E0CB16D10409F0B6CF76CF6AEF64038B
:101690009001659F300D112420583F4F28173907BE
:1016A0005CF4A985BA85ED91FC9111970190F081C8
:1016B000E02D6AE0CD01099581E090E02A960FB611
:1016C000F894DEBF0FBECDBFDF91CF911F910F9178
:1016D000FF90EF90DF90CF90BF90AF909F908F9052
:1016E0007F906F905F904F903F902F900895109251
:1016F000B003E091B103F0E0EE0FFF1FEA5AFE4F96
:101700002081922F9695969596958181382F3295C6
:10171000330F307E432F492B582F569556955695AB
:10172000CA0101969F718417950778F0382F330FFF
:10173000330F330F2770232B2083990F990F990FA5
:10174000829586958770892B81830895EF92FF9209
:101750000F931F93CF93DF93EC01162F7A01611142
:1017600003C047EC54E002C04FEB54E02981822FC4
:101770008695869586956A8161706295660F607E12
:10178000682B70E06E5071098881982F92959F7038
:10179000822F87708295807F892B90E008E028E077
:1017A00003970E9486158E818695877090E083301E
:1017B000910501F124F401970CF4EDC009C08530C6
:1017C000910509F47DC00CF441C0069709F0E3C00F
:1017D0008F81982F92959770923010F08F788F8329
:1017E0004F814295477088E0489FA0011124415CD9
:1017F000594F11C08F81982F92959770923010F0A9
:101800008F788F834F8142954770E8E04E9FA0010B
:10181000112441555B4F2981922F96959695969567
:101820006A8161706295660F607E692B70E0675017
:1018300071098881982F92959F70822F8770829569
:10184000807F892B90E008E028E06FC098818F812D
:1018500092FD1BC0982F92959770933060F08F780F
:101860008F838D818B7F8D83E114F10421F0612FB3
:10187000CE01F70109954F8142954770FBE04F9FDC
:10188000A0011124425E594F36C0982F929597704F
:10189000933060F08F788F838D818B7F8D83E114FF
:1018A000F10421F0612FCE01F70109954F81429596
:1018B0004770FBE04F9FA001112443505A4F4EC088
:1018C00098818F8192FD33C0982F929597709230B6
:1018D00048F08F788F83E114F10421F0612FCE015D
:1018E000F70109954F8142954770FBE04F9FA0019A
:1018F000112449515A4F2981922F96959695969584
:101900006A8161706295660F607E692B70E0675036
:1019100071098881982F92959F70822F8770829588
:10192000807F892B90E008E02BE0039732C0982F4E
:1019300092959770923048F08F788F83E114F1047C
:1019400021F0612FCE01F70109954F814295477033
:10195000FBE04F9FA00111244F525A4F2981922F33
:101960009695969596956A8161706295660F607EF0
:10197000692B70E0675071098881982F92959F704C
:10198000822F87708295807F892B90E008E02BE082
:1019900006970E9486158C81282F22952695277000
:1019A0009D819370990F990F990F922BD1F09B8184
:1019B000692F62956695669563708F70880F880FA2
:1019C000862B682F70E08A81881F8827881F9F7365
:1019D000990F892B08E022E04FEC55E090E00E943F
:1019E0008615DF91CF911F910F91FF90EF90089591
:1019F000DF92EF92FF920F931F93CF93DF93FC013F
:101A0000DB019481292F229526952770D5818D2F72
:101A10008370880F880F880F822B09F441C0CC9106
:101A20008C2F82958F7011962C911197422F4770B1
:101A30004295407F482B50E0269526952695129694
:101A40008C91129781708295880F807E282B6281FD
:101A5000362F331F3327331F8381682F6F73660F31
:101A6000632B70E082958695869583709F70990FA1
:101A7000990F892B8A01035011096017710784F0AF
:101A80004B5F5F4F641775075CF430E090E0A9018D
:101A90004E505109841795071CF0281739074CF44C
:101AA000D2FD7DC0868186958770843009F077C02D
:101AB00010C08C2F837039F08D5F982F93708C2F0E
:101AC0008C7F892B8C9384818F71848385818C7F1B
:101AD0005CC03C91832F82958F7011964C91119729
:101AE000642F67706295607F682B70E08B010350F4
:101AF000110946954695469512968C9112978170DC
:101B00008295880F807E482B50E0EA012E978081D5
:101B1000982F92959F70218182FD39C0822F877006
:101B20008295807F892B90E00396E22EE694E694DE
:101B3000E694F2802F2D2170F22EF294FF0C20EE0D
:101B4000F222DE2CDF287C0125E0E20EF11C0E15CE
:101B50001F052CF56B5F7F4F8617970704F58D2DBA
:101B600090E0BC0162507109C617D707C4F406970C
:101B700048175907A4F0832F837029F08D5F837075
:101B80003C7F832B8C9385818460858308C0822F62
:101B900087708295807F892B90E00297C6CFDF9176
:101BA000CF911F910F91FF90EF90DF900895E091FA
:101BB000AE03EF5FE093AE03F0E0EE0FFF1FEA5AD3
:101BC000FE4F8081877019F486E98093AE031092EE
:101BD000B3031092B2030895CF93DF931F92CDB752
:101BE000DEB79091B0039F5F9093B00389830E940A
:101BF000770B9091B1039F5F8981963918F4909388
:101C0000B10302C01092B103E091B103F0E0EE0F16
:101C1000FF1FEA5AFE4F8770808311821092B00333
:101C20000F90DF91CF910895FC01962F9770292F87
:101C3000220F9681917F922B9683292F22952770D0
:101C400030E02617370711F49F78968386818F77C7
:101C500086838781807887830895CF93DF93EC0113
:101C60008A818077E9F46623B9F08E8180778031AC
:101C700039F481E090E00E94EC0D61E070E008C072
:101C8000803251F482E090E00E94EC0D62E070E05E
:101C9000CE010E94140E08C08E81817F866003C031
:101CA0008E81817F8C608E838E818F778E838F81F2
:101CB000807F8F83DF91CF9108954F925F926F92D3
:101CC0007F928F929F92AF92BF92CF92DF92EF92CC
:101CD000FF92CF93DF932091AF03222309F46FC0CB
:101CE0004A015B01EC01E0913F08F0914008099541
:101CF000882309F464C08091C003823008F45FC077
:101D000081E08093D003809151018093CC032E0118
:101D1000612C712C60E072E18AE790E0A3019201EE
:101D20000E94F72169017A0181E0C81AD108E1080F
:101D3000F108C114D10481E0E806F104F0F168E48F
:101D400078EE81E090E0A30192010E94F721690101
:101D50007A0181E0C81AD108E108F10893E0809186
:101D60008100887F892B8093810081149104A104D4
:101D7000B10471F0DE01AA0FBB1FA50194010E94FE
:101D8000162228EE33E040E050E00E94212203C0FA
:101D90002FEF3FEFA901D0928900C09288002093D5
:101DA000BB033093BC034093BD035093BE038091AB
:101DB0006F00826080936F0002C091E0D0CFDF910E
:101DC000CF91FF90EF90DF90CF90BF90AF909F901A
:101DD0008F907F906F905F904F900895EF92FF9259
:101DE0000F931F93CF93DF931F92CDB7DEB77C0184
:101DF000FC0100811181C80169830E94E121698190
:101E0000681719F0C8010E94E921C7010F90DF91FE
:101E1000CF911F910F91FF90EF9008950F931F9313
:101E2000CF93DF9300D01F92CDB7DEB7182F062FC8
:101E300061E089E04B830E94941468EC70E080E0DC
:101E400090E00E945E0760E0802F0E94941482E080
:101E500090E09A8389834B81642FCE0101960E9482
:101E6000EE0E64EF71E080E090E00E945E0761E0BA
:101E7000802F0E9494140E94D50981238117D9F3E1
:101E80000F900F900F90DF91CF911F910F910895B8
:101E9000CF93DF9300D0CDB7DEB76091EE036F5FD5
:101EA0006093EE0380910C01861750F460930C014F
:101EB00088E893E09A838983CE0101960E94EE0E12
:101EC0008091EE0380FD03C0E0E0A1E002C0E1E00C
:101ED000A0E0B0E083E0AA0FBB1F8A95E1F7A25211
:101EE000BC4F8C91837080638C9381EB11968C93A3
:101EF000119791E012969C93129713961C92139748
:101F000014961C92149715961C92159786E01696B7
:101F10008C93169717968C911797807817968C93B9
:101F2000F0E023E0EE0FFF1F2A95E1F7E252FC4FAD
:101F300080818370846B808386EB8183928313829C
:101F40001482158286E0868387818078878320913A
:101F5000DE03822F8370833041F08F5F982F937060
:101F6000822F8C7F892B8093DE038091E603836030
:101F70008093E6031092B10386E98093AE0310923A
:101F8000B3031092B2031092B0038CE291E0E6E545
:101F9000F1E0A2E8B2E001900D920197E1F78CE246
:101FA00091E0E6E5F1E0DF019C011D922150304017
:101FB000E1F70F900F90DF91CF9108954091D903F1
:101FC0005091DA032091D7033091D8034217530779
:101FD000B4F49091E8009570E1F39091E80092FDDF
:101FE00019C08093F1008091D9039091DA03019692
:101FF0008F739927892B19F48EEF8093E8008091D5
:10200000D9039091DA0301969093DA038093D90370
:1020100081E0089580E00895CF92DF92EF92FF92E1
:102020000F931F93CF93DF931F92CDB7DEB7182F77
:10203000062FE42E862F880F8E5F99830E94DE0F75
:1020400083E00E94DE0FF12EC12E9981D92E8C2DB6
:102050008F19801798F4F601E7FE02C0849101C041
:1020600080810E94DE0F182F80E00E94DE0F812306
:10207000FFEFCF1ADF0A8111EACF01C081E00F9094
:10208000DF91CF911F910F91FF90EF90DF90CF9054
:102090000895DF92EF92FF920F931F93CF93DF93F8
:1020A000D82E8A017B01E40EF51EEB01CE15DF056B
:1020B00071F0D7FE03C0FE01849101C088810E94A7
:1020C000DE0F21968111F2CF8FEF9FEF01C0C80183
:1020D000DF91CF911F910F91FF90EF90DF900895C6
:1020E000615030F02091F100FC0120830196F8CF7F
:1020F000289884E68093DC030895CF92DF92EF92D4
:10210000FF920F931F93CF93DF936C017A018B01A2
:10211000C0E0D0E0CE15DF0589F0D8016D918D01CA
:10212000D601ED91FC910190F081E02DC601099559
:10213000892B11F47E0102C02196ECCFC701DF91FB
:10214000CF911F910F91FF90EF90DF90CF90089566
:10215000CF93DF931F92CDB7DEB76983DC01ED919A
:10216000FC910280F381E02D41E050E0BE016F5F01
:102170007F4F09950F90DF91CF91089583E0809371
:10218000E9008091F200882319F08AE38093E80047
:102190000895FC018485958597FD0BC09FB7F89441
:1021A00082E08093E9008091F2009FBF90E0019669
:1021B00008959FB7F89482E08093E9008091F2003F
:1021C0009FBF90E008950E94DC210F931F93CF934F
:1021D000DF931F92CDB7DEB782E0898342E450E0FF
:1021E0006EE37CE080E80E9449100E945617DC01F3
:1021F00012960D911C9113970115110569F0D801E4
:10220000ED91FC910280F381E02DBE016F5F7F4F65
:10221000C801099597FF07C089810F90DF91CF9181
:102220001F910F910895F80100851185E5CF8F92D8
:102230009F92AF92BF92CF92DF92EF92FF920F9355
:102240001F93CF93DF935C016B018A0180910B0197
:10225000882309F45EC08091DD03882309F459C006
:102260008091490180FF05C08091E00082608093E9
:10227000E000E8018AEFF82E93E0E92E2FE3822EAA
:102280003AE3932E209709F43DC08FB7F894E0927B
:10229000E9009091E80095FF06C09091F200282D8A
:1022A000291B922F01C090E08FBF91110AC0FA94B0
:1022B000FF2079F161E070E080E090E00E945E072D
:1022C000E1CF292F30E0C217D3070CF49C2F8FB732
:1022D000F894E092E9002091E80025FF11C0292F31
:1022E00030E0C21BD30BF601915020F04191409396
:1022F000F100FACFC20ED31E9091E80095FF13C0F3
:102300008FBFC0CF5D9884E68093DB031016110663
:1023100044F081E090E0F5019383828380E090E0D7
:1023200005C0C80103C09092E800EACFDF91CF91C9
:102330001F910F91FF90EF90DF90CF90BF90AF90E3
:102340009F908F900895CF93DF931F92CDB7DEB704
:10235000FC018485958597FD05C02FEF3FEF3587FC
:1023600024870BC0CE0101960E942C17019719F407
:10237000898190E002C08FEF9FEF0F90DF91CF91A6
:1023800008950F931F93CF93DF931F92CDB7DEB7BE
:102390008C01FC018485958597FF0EC0CE010196C6
:1023A0000E942C17019719F4298130E002C02FEF09
:1023B0003FEFF80135872487F801848595850F90D4
:1023C000DF91CF911F910F9108951F920F920FB639
:1023D0000F9211248F939F938091E1009091E100DF
:1023E000937F9093E10083FF0FC01092E90091E08A
:1023F0009093EB001092EC0092E39093ED0010921A
:10240000DD0398E09093F00082FF20C093E090936A
:10241000E9009091F200992319F09AE39093E80073
:102420009091DB03992339F09091DB0391509093C5
:10243000DB03992389F19091DC03992339F0909182
:10244000DC0391509093DC03992341F184FF10C089
:102450008091E2008E7E81608093E2008091E100B5
:102460008F7E8093E100809149018E7E806111C052
:1024700080FF16C08091E2008E7E80618093E20032
:102480008091E1008E7E8093E100809149018E7EF3
:1024900081608093490104C05D9ACDCF289AD6CF40
:1024A0009F918F910F900FBE0F901F9018951F92C4
:1024B0000F920FB60F921124CF92DF92EF92FF92FC
:1024C0000F931F932F933F934F935F936F937F933C
:1024D0008F939F93AF93BF93EF93FF93CF93DF932C
:1024E000CDB7DEB76C97DEBFCDBF1092E90080910B
:1024F000E80083FFFAC168E0CE0145960E947010A3
:1025000082EF8093E8008D8987FF05C09091E800F5
:1025100090FFFCCF03C09EEF9093E800982F907639
:1025200009F0C6C09E892F89188D91110CC0803882
:1025300029F480914A018093F10002C01092F100C9
:102540001092F10047C1422F50E0512B913051F4CD
:10255000811140C14130510509F03CC180914A01CF
:102560008D7F0BC0933061F4811134C1413051052E
:1025700009F030C180914A01826080934A012AC1EA
:10258000953041F48091E80080FFFCCF20682093D3
:10259000E30020C1963009F05FC0EB8CFC8C1092F8
:1025A000E9001092DA031092D903123091F51092DB
:1025B000D8031092D7030E94E51099E0BE016F5F27
:1025C0007F4FDB01E92F1D92EA95E9F799831A8382
:1025D00091E09E8390EA98879AEF99872091D9039A
:1025E0003091DA03275F3F4F3C832B838D8310921A
:1025F000E9001092DA031092D903F092D803E09226
:10260000D70349E050E080E00E9449100E94E510A5
:10261000E1C0F092D803E092D7030E945617DC0184
:102620001296ED90FC901397E114F10409F4C0C0E8
:10263000D701ED91FC910480F581E02DBE016B5E28
:102640007F4FC7010995009719F00CF0C3C0C6C0B1
:10265000F701E084F184E8CF973009F4BFC09830E7
:1026600021F481E08093F100B5C0993009F0B2C047
:10267000837009F0B3C0E4E1F1E081E021E036E3EA
:102680009081992361F08093E9002093EB00919170
:102690009093EC003093ED008F5F873089F78EE7E1
:1026A0008093EA001092EA008F898093DD0392C044
:1026B0008B8D9C8D1092E9001092DA031092D90351
:1026C0009093D8038093D703898D811156C08E894A
:1026D0009D89913A59F4813209F080C047E050E079
:1026E00064E071E080E00E94491074C0913209F00A
:1026F00075C0833289F4888D90E0982F88272F89C0
:10270000822BA0E0B0E08093000190930101A093A0
:102710000201B09303015EC0803269F48091E80049
:1027200082FFFCCF67E084E091E00E9470108BEFA5
:102730008093E80006C0823209F04CC08F898093F4
:102740000B0180914801882319F0EEEFFAE002C0F6
:10275000E0E0F8E08091040190910501A09106016C
:10276000B0910701803B9440A105B10509F088C0F4
:1027700080910B0180FFA0C083C00E945617DC012E
:1027800012960D911C9113970115110539F1D8017D
:10279000ED91FC910190F081E02DBE016B5E7F4FC9
:1027A000C8010995811116C0F80100851185ECCF8B
:1027B0001130C1F0133091F48F89882309F455C08A
:1027C0008230E9F440E867E080E99CE00E940C1068
:1027D000882321F08EEF8093E80087C081E2809308
:1027E000EB0083C08B8D9C8D089711F41093D6035A
:1027F0008091D603811136C068E97CE038C0813011
:1028000029F440E86BE084E89CE0E0CF833031F7C6
:102810000E945617DC011296ED90FC9013978E01E2
:102820000F5F1F4F6801E114F10479F0D701ED91BA
:10283000FC910680F781E02DB801C7010995080FCA
:10284000111DF701E084F184EECFD8011C92F6014E
:1028500001900020E9F73197BF016C197D0940E034
:10286000C601B4CF6AEA7CE002C060E87CE0611592
:10287000710509F4B3CFFB01449150E080E833CFF8
:102880000FB6F894A89580916000886180936000ED
:10289000109260000FBEA895EE3F2AE0F20739F0D3
:1028A0008091FE0A9091FF0A9183808393CF1092CA
:1028B000FF0A1092FE0A8ECFEE3F8AE0F80731F051
:1028C000808191819093FF0A8093FE0A87E797E7C2
:1028D000918380839BE088E10FB6F894A89580935C
:1028E00060000FBE9093600075CF6C960FB6F894A1
:1028F000DEBF0FBECDBFDF91CF91FF91EF91BF91B2
:10290000AF919F918F917F916F915F914F913F9187
:102910002F911F910F91FF90EF90DF90CF900F902C
:102920000FBE0F901F901895362F90E0FC01E15ECE
:10293000F34F4491FC01ED55FE4F2491FC01E0530F
:10294000FE4F8491882309F451C04423E1F150E003
:10295000FA013197EF30F105B0F5E35AFF4F0C94CF
:10296000D621909180009F7707C0909180009F7D35
:1029700003C090918000977F9093800024C094B50D
:102980009F7702C094B59F7D94BD1DC0909190002B
:102990009F7707C0909190009F7D03C09091900019
:1029A000977F909390000FC09091C0009F7703C0D5
:1029B0009091C0009F7D9093C00005C09091C2008F
:1029C000977F9093C200E82FF0E0EE0FFF1FEE53C9
:1029D000FE4FA591B4918FB7F894EC91311103C0DB
:1029E00020952E2301C02E2B2C938FBF0895CF93BB
:1029F000DF9390E0FC01ED55FE4F2491FC01E05384
:102A0000FE4F8491882361F190E0880F991FFC01AB
:102A1000E857FE4FC591D491FC01EE53FE4FA591AE
:102A2000B491611109C09FB7F894888120958223E1
:102A30008883EC912E230BC0623061F49FB7F89429
:102A40003881822F809583238883EC912E2B2C93C1
:102A50009FBF06C08FB7F894E8812E2B28838FBFC5
:102A6000DF91CF910895009769F0FC01019000205B
:102A7000E9F73197AF01481B590BBC0182E498E09C
:102A80000C947D1080E090E008958F929F92AF9219
:102A9000BF920F931F93CF93DF93CDB7DEB7A1976C
:102AA0000FB6F894DEBF0FBECDBF19A2423008F4B6
:102AB0004AE08E010F5D1F4F842E912CA12CB12C6A
:102AC000A50194010E942122E62FB901CA010150FB
:102AD0001109EA3014F4E05D01C0E95CD801EC931F
:102AE000232B242B252B61F7C8010E943315A196B7
:102AF0000FB6F894DEBF0FBECDBFDF91CF911F910F
:102B00000F91BF90AF909F908F9008952F923F921A
:102B10004F925F926F927F928F929F92AF92BF92ED
:102B2000CF92DF92EF92FF920F931F93CF93DF9399
:102B3000CDB7DEB728970FB6F894DEBF0FBECDBF76
:102B40005A01822E912C9C01280D391D37FDC4C0DD
:102B5000803891050CF0C0C09B01200F311D37FD5E
:102B6000BBC0603471050CF0B7C0AB0177FF04C087
:102B700044275527461B570B477055279B0177FF66
:102B800002C0295F3F4FE3E035952795EA95E1F7CD
:102B900077FF08C02150310968E070E0DB01A41B19
:102BA000B50BAD01602F66956695669570E0077070
:102BB00011F06F5F7F4FDB01A20FB31FBA83A983B0
:102BC00039017694762C662477946794680E791E82
:102BD000E12CF12C00E010E02301B0E84B0E511C79
:102BE00068E070E0DB01A41BB50BBC83AB8369819B
:102BF0007A812617370709F46FC02830310509F4A8
:102C00006BC02F3FBFEF3B070CF45BC0B201600FFE
:102C1000711FDB01A151BC4FBE83AD83D801A60D4E
:102C2000B71DA151BC4F6C0160E070E068157905DB
:102C30000CF047C0E0E8CE16D10409F442C0D7FC3E
:102C400034C02F3FFFEF3F0709F442C0FB01EE0DF8
:102C5000FF1DEA0DFB1DE491042E01C0EE0F0A9446
:102C6000EAF73C90E329EC9341155105F1F0273048
:102C70003105D9F0FB01EE0DFF1DEA0DFB1DE491BE
:102C80002E2E312CF1010B8002C0F595E7950A94A8
:102C9000E2F7F887EF83ED81FE813080EF81F885E0
:102CA000E3291F01ED81FE8120826F5F7F4FED815F
:102CB000FE813196FE83ED83FFEFCF1ADF0A119676
:102CC000B5CF2F5F3F4F00581F4FE80CF91C8FCF37
:102CD0004115510579F6E9CF28960FB6F894DEBF75
:102CE0000FBECDBFDF91CF911F910F91FF90EF905D
:102CF000DF90CF90BF90AF909F908F907F906F901C
:102D00005F904F903F902F90089520914C0828237A
:102D100029F090914B08982381E009F080E0089514
:102D20000F931F93CF93DF93C0E08C2F90E02091FF
:102D3000DE03237030E08217930784F4019608E0E5
:102D400028E04CEB5CE060E070E033E0880F991F16
:102D50003A95E1F70E948615CF5FE7CFC0E018EF04
:102D60002C2F30E08091E603837090E0281739071C
:102D70008CF41203C001139F900D112408E028E089
:102D80004CEB5CE060E070E082599F4F0E9486153A
:102D9000CF5FE6CFC0E0D0E021E047E350E0BE01E6
:102DA00086E498E00E945B0A2196C038D105A1F71D
:102DB00088E090E0909359088093580889E390E068
:102DC00090935B0880935A088AE391E00E94331540
:102DD0006091EE0370E080E090E04AE00E944515CB
:102DE00081E491E00E94331560910C0170E080E075
:102DF00090E04AE0DF91CF911F910F910C9445151F
:102E000020914C08282329F490914B08982381E0C5
:102E100009F480E008958091EF038EBDE0EFF3E0C8
:102E200081910DB407FEFDCF8EBD87E0EF3EF80720
:102E3000B9F70DB407FEFDCF089520E08FEE93E0C3
:102E4000B22FB111BFEFFC010024B193B193B19344
:102E5000B1930394D1F70895FC018091DD038111B2
:102E600003C08FEF9FEF08959FB7F89482E080939F
:102E7000E9002091F20030E01216130614F421E06C
:102E800030E02115310559F0289884E68093DC0361
:102E90008091F10080838091F200882319F09FBF18
:102EA000C90108958BE68093E800F9CF809164080A
:102EB00081110DC082E08093600884E080936108F6
:102EC000109263081092620881E08093640880E6A3
:102ED00098E00895CF93DF9300D000D01F92CDB734
:102EE000DEB7789484B5826084BD84B5816084BD8A
:102EF00085B5826085BD85B5816085BD80916E0098
:102F0000816080936E0010928100809181008260C8
:102F10008093810080918100816080938100809105
:102F20008000816080938000809191008260809316
:102F30009100809191008160809391008091900038
:102F40008160809390008091C10084608093C10073
:102F50008091C10082608093C1008091C100816036
:102F60008093C1008091C30081608093C3008091F1
:102F7000C00082608093C0008091C2008160809315
:102F8000C20080917A00846080937A0080917A00F8
:102F9000826080937A0080917A00816080937A00C9
:102FA00080917A00806880937A001092DD031092FD
:102FB0004A01109249018091D70081608093D70027
:102FC00080EA8093D80089B5806189BD89B5826027
:102FD00089BD09B400FEFDCF61E070E080E090E0C3
:102FE0000E945E078091D8008F7C80618093D8001A
:102FF0008091E000807F8093E0008091E1008E7EF0
:103000008093E1008DE08093E200559A209AEEEFE4
:10301000FFE7859194918B3F9C4D19F481E080935B
:1030200048018FEF9FEF9093FC078093FB071FB73A
:10303000F8948091B403811127C0E1EEF1E084910E
:10304000E4EBF1E09491E82FF0E0EE0FFF1FE8577A
:10305000FE4FA591B491EC91E92321F461E081E167
:103060000E94941461E081E10E94F7148CB58061A4
:103070008CBD8CB580648CBD61E08FE00E94F7143C
:1030800061E080E10E94F7148091B4038F5F809328
:10309000B4031FBF0FEE11E0F80184910E5F1F4FC4
:1030A00031966491882319F00E94F714F5CF61E0FE
:1030B00086E00E94941461E070E080E090E00E945D
:1030C0005E0760E086E00E9494146AE070E080E0B1
:1030D00090E00E945E0761E086E00E949414ECEDAF
:1030E000F1E0E491F0E0EE0FFF1FEE53FE4F85910B
:1030F00094919093500180934F01EFEAF1E0E491B5
:10310000E0934E01E4EDF1E0E491F0E0EE0FFF1FFB
:10311000EE53FE4F8591949190934D0180934C0115
:10312000E7EAF1E0E491E0934B018CB58C7F8CBD34
:103130008DB581608DBD0E94160A06E911E03DE063
:10314000F32EF00EF80184910E94480A0F5F1F4F82
:10315000F012F8CF0E94340A80916400816080935D
:1031600064008091640082608093640080916400B8
:103170008068809364008091640080648093640020
:103180008091650081608093650000E014E080E03C
:103190000E94480A01501109D1F70E94D50987FF02
:1031A0003CC00E94160A85EA0E94480A0E94340A1E
:1031B00040E060E080E00E94F2090E94D50984FDB1
:1031C00003C00E940B0AF9CF41E061E081E00E9458
:1031D000F2090E94160A84EA0E94480A0E94340AF0
:1031E0001CC060E089E00E9494140E94D509847894
:1031F000843821F44FEF6BE00E940E0F0E94D50936
:103200008471843121F440E06AE00E940E0F68EC82
:1032100070E080E090E00E945E070E94D50982FD88
:10322000E0CF61E089E00E94941482E090E00E9487
:10323000E12181110E944F0A60E08AE00E9494140B
:103240008EEEE82EFF24FA940E94D50986FF06C070
:1032500041E061E081E00E94F20943C01E2D1C3F65
:1032600019F441E060E004C0183129F440E061E065
:1032700081E00E94F2090E941D1700E128E548ED57
:1032800050E0B70184E190E00E9486150E940B1780
:103290006BE170E080E090E00E945E07103F31F447
:1032A0006AEF70E080E090E00E945E07FFEFEF1AA7
:1032B000FF0A29E1E216F10439F66EEE72E080E0D1
:1032C00090E00E945E0761E089E00E949414E09122
:1032D0004608F09147080190F081E02D86E498E0DF
:1032E000099562E370E080E090E00E945E070E9432
:1032F000D5098111F6CF80E180934D0885E00E94C9
:103300004B098DE00E944B0981E08093510188E5D3
:1033100092E0E6E5F1E0DF019C011D922150304092
:10332000E1F78091E60383608093E6038091DE03FA
:1033300083608093DE0388E893E00E94E12180931C
:103340000C01ACE24A2E55245394B8E52B2EB2E082
:103350003B2E12E0812E912CAA24A394B12C11E0D3
:10336000F0E06F2EF0E07F2E2FB7F894809152019D
:1033700090915301A0915401B09155012FBF20911C
:103380005608222391F020914E08382F321B30939B
:1033900057082091490830914A082F5F3F4F3093DA
:1033A0004A082093490810925608409152085091BB
:1033B0005308609154087091550884179507A60723
:1033C000B70738F4481B423008F494C20E940B0A35
:1033D00091C220914D08AC01BD01420F511D611DEC
:1033E000711D409352085093530860935408709392
:1033F000550880934E0890934F08A0935008B093BF
:103400005108109356080E941D1710925B081092E5
:103410005A08109259081092580880914B088093CE
:103420004C080E94D50980934B088091B5038230E7
:1034300009F4D4C030F4882369F0813009F4BFC0A6
:103440004FC2843009F4BBC108F43CC1853009F493
:10345000F2C146C280E90E9400178823D1F0809112
:10346000B2039091B303009729F4B092B303A092F2
:10347000B20306C0019721F41092B3031092B20375
:1034800044E650E060E070E084EF91E00E945D0E61
:1034900030C08CE60E948516882359F18091B203D2
:1034A0009091B3036091AF03892B99F481E09091DF
:1034B000B103911101C080E0861731F09A828982B0
:1034C000CE0101960E94EE0E0E94480F1093B503A4
:1034D000D7CF662359F01092AF0360E085E00E94D9
:1034E000F71460E08DE00E94F714CACF0E944F0AE3
:1034F000C7CFF090B003F394F092B00300E220E461
:103500004FEC54E060E170E080E190E00E948615AD
:1035100008E028E04FEB54E060E170E08EE390E0DB
:103520000E9486158F2D64E10E94CA2141E050E07F
:103530009A3010F440E050E073E0440F551F7A9544
:10354000E1F741555B4F08E028E067E170E08EE36A
:1035500090E00E9486156091B2037091B303E3E09E
:10356000660F771FEA95E1F7625E7F4F28E047EA32
:1035700054E08AE590E00E94861529E04EE954E087
:103580006EE170E082E690E00E9486158091AF03C4
:10359000811103C04EE054E002C046E154E008E06F
:1035A00028E066E270E082E690E00E94861520E85E
:1035B0004EE154E067E370E080E090E08FC188E086
:1035C0000E940017882309F49CC18091E40386952A
:1035D0008C5F8770823008F0B0C193C18091B003D6
:1035E0008F5F8093B003883208F068C03091E403A5
:1035F000932F991F9927991F2091E503822F8F7090
:10360000880F892B8F5F8F713F77922F907F8A3041
:1036100048F4282F279522272795322B3093E4034F
:10362000869508C03093E40380E1890F982F907746
:10363000822F8078892B8093E50340E050E061E0A1
:103640008EED93E00E94A60B2091EC03922F991F20
:103650009927991F3091ED03832F8F70880F892B45
:103660008F5F8F718A3040F480FB27F92093EC0341
:103670008695307F832B0DC02F772093EC03932FFB
:1036800092959F709F5F97709295907F832F80781F
:10369000892B8093ED0340E050E060E086EE93E0FC
:1036A0000E94A60B0E9490168091B00390E044E126
:1036B00050E060E070E0885A9D4F74C094E09093B1
:1036C000B50376C08091B0038F5F8093B0038832DA
:1036D00008F06BC03091E403932F991F9927991F2D
:1036E0002091E503822F8F70880F892B8F5F8F7158
:1036F0003F77922F907F8A3048F4282F27952227F2
:103700002795322B3093E403869508C03093E40369
:1037100080E1890F982F9077822F8078892B809372
:10372000E50340E050E061E08EED93E00E94A60BDF
:103730002091EC03922F991F9927991F3091ED0347
:10374000832F8F70880F892B8F5F8F718A3040F4A1
:1037500080FB27F92093EC038695307F832B0DC0E7
:103760002F772093EC03932F92959F709F5F977014
:103770009295907F832F8078892B8093ED0340E092
:1037800050E060E086EE93E00E94A60B0E94901647
:103790008091B00344E150E060E070E0D201A81BEA
:1037A000B109CD010E945D0E9BC0B5E0B093B50399
:1037B0001092B3031092B2031092B00391C08091A3
:1037C000B2039091B3038C33910538F5009739F427
:1037D00049EE50E060E070E080E293E012C0843196
:1037E000910539F449EE50E060E070E088EE93E036
:1037F00008C0889741F44DE451E060E070E080EB50
:1038000094E00E945D0E8091B2039091B303019603
:103810009093B3038093B20309C08CE10E94851694
:10382000882321F00E94480F1093B50300E220E4A2
:103830004EE053E04FC08091B2039091B3038C33BC
:10384000910500F5009739F449EE50E060E070E032
:103850008CE291E00BC084319105B1F3889741F47B
:103860004DE451E060E070E088EC90E00E945D0E75
:103870008091B2039091B30301969093B303809328
:10388000B20324C08CE10E9485168823F9F0E6E596
:10389000F1E09101119221503040E1F78091AF03A6
:1038A0008093B1031092B3031092B2031092B0034D
:1038B0008091E60383608093E6038091DE0383605A
:1038C0008093DE031092B5031092EE0300E220E431
:1038D0004EE052E060E170E080E290E00E948615E8
:1038E00040E054E06FEE73E08FEE97E00E94171116
:1038F0000E940B176114710409F436CD0E94000078
:103900002ECD84E00E9400178823E9F18091E40322
:1039100086958C5F87708230B0F18091E203982F9A
:103920009295969597708091E3038370880F880F26
:10393000880F892B09F453C426C040E550E060E0AD
:1039400070E08CE791E00E945D0E84E090E00E94C0
:10395000EC0D64E070E08EED93E00E94140E0E9486
:10396000D50985FF05C08091E4038F78806108C088
:103970000E94D50986FF1FC08091E4038F78806282
:103980008093E40318C080E20E940017882309F4A2
:10399000D0C340E550E060E070E08EE591E00E9429
:1039A0005D0E81E090E00E94EC0D61E070E08EED34
:1039B00093E00E94140E80E20E9485168823B1F0E5
:1039C0008091E40386958770813051F483E090E024
:1039D0000E94EC0D63E070E08EED93E00E94140E07
:1039E0008091E4038F788093E4030CC080E40E940C
:1039F0008516882339F08091E4038695877082309C
:103A000079F7E4CF8091B0038F5F8093B003811189
:103A100043C48091B2039091B303E091AE03009749
:103A200009F0D7C0B092B303A092B203F0E0EE0F5A
:103A3000FF1FEA5AFE4F8081E82FE770EE2EF12C2F
:103A40008E2F90E08730910508F0E5C0FC01EA5A1E
:103A5000FF4F0C94D62140E550E060E070E08AEF23
:103A600090E006C040E550E060E070E088E191E061
:103A70000E945D0EB70186EE93E00E94140ECBC04B
:103A800040E550E060E070E088E191E00E945D0E6A
:103A90008091EA03982F9295969597708091EB0309
:103AA0008370880F880F880F892B29F01092B30339
:103AB0001092B203B0C0B70186EE93E00E94140EDC
:103AC0003091EA0330718091EB038C7F82608093A8
:103AD000EB032091E603922F92959F704091E703AC
:103AE0005091E8033066842F87708295807F22FD95
:103AF0001CC0982B9D5F852F90FB87F98093E8036E
:103B0000969546954695469581708295880F807E5C
:103B1000482B4650842F8295880F880F807C9F7396
:103B2000982B9093E903942F1AC0892B8350952FDB
:103B300080FB97F99093E8038695469546954695C0
:103B400091709295990F907E942B9650492F4295A3
:103B5000440F440F407C8F73842B8093E903969528
:103B600096959F70932B9093EA0322FB222720F9CE
:103B70008091EA0320FB84F98093EA034CC040E57E
:103B800050E060E070E08EE091E00E945D0EB701D1
:103B900086EE93E00E94140E8091E8038295877070
:103BA0008E5F863008F085E08770982F9295907F21
:103BB0008091E8038F78892B8093E8038091EB0351
:103BC00087708093EB038091EC038E7F8093EC03EE
:103BD00022C001969093B3038093B203F0E0EE0FFE
:103BE000FF1FEA5AFE4F4081469546954695518102
:103BF000652F6295660F607E262F242B352F369514
:103C0000369536958217930730F01092B3031092D1
:103C1000B2030E94D70D8091E403869587708130AE
:103C200021F52091DE032460922F92959F703091B0
:103C3000DF03832F87708295807F892B81588F7750
:103C40002F70932F987F833050F0382F3295307F2C
:103C5000232B2093DE0382958F70892B24C0206351
:103C60002093DE039093DF0327C0823029F5209153
:103C7000DE032B7F922F92959F703091DF03832F6D
:103C800087708295807F892B8F5F8F772F708C371D
:103C900068F4982F9295907F292B2093DE038295CC
:103CA0008F70387F832B8093DF0306C0206B2093B7
:103CB000DE0337603093DF038091EC0386958770D5
:103CC000813041F48091E60383FF0AC08091E603CE
:103CD0008B7F09C0823071F58091E60383FFF6CFB8
:103CE0008091E60384608093E6038091E60382FF7F
:103CF00028C0282F22952F703091E703932F9770BB
:103D00009295907F922B91589F778F70933040F5CA
:103D10008063387F3093E70382FB992790F99127DE
:103D200090FB82F983FB992790F9912790FB83F907
:103D30008093E6034EEDC42E43E0D42EE12CF12C0B
:103D400049C0282F22952F703091E703932F977049
:103D50009295907F922B9F5F9F778F709C3768F42E
:103D6000292F2295207F822B8093E60392959F70C6
:103D7000387F932B9093E703DDCF806B3760CACFFA
:103D80003FE1320F3F71FC01E252FC4F432F42955D
:103D9000440F407E24812F71242B2483432F46958A
:103DA0004695469555815C7F542B5583311129C02A
:103DB000FC01E252FC4F3281232F207709F06CC0C6
:103DC00058E0C50ED11CEA94EF2809F438C1EE245E
:103DD000E394F12CC70123E0880F991F2A95E1F79E
:103DE000FC01EE51FC4F2081322F32953695377011
:103DF00021812370220F220F220F232B09F0C0CF25
:103E0000D7CFDC01A052BC4F628133814C91742F1B
:103E1000771F7727771F11964C914F73440F472BCD
:103E200024FD1BC071E0740F7F7770FB67F962831C
:103E3000A72FA695307C3A2B33837B3740F54E5F16
:103E40004F7740FB67F96283A42FA695307C3A2B0D
:103E500033834B3709F0ACCF1AC07FE7740F7F77FD
:103E600070FB67F96283A72FA695307C3A2B3383CA
:103E7000743068F042584F7740FB67F96283A42F93
:103E8000A695307C3A2B3383433009F091CF2F71C4
:103E900024835C7F55838CCFDC01AD51BC4F4C91AA
:103EA000242F26952695269511964C914170429582
:103EB000440F407E422BA1E0A40FAF736A2F660F20
:103EC000660F660F25812770262B25835A2F529562
:103ED0005695577076817E7F752B7683A23108F0D8
:103EE00047C0AC0140525C4F5D834C83DA012C919A
:103EF0002695722F77706081262F22952F70518121
:103F0000452F47704295407F242B270F422F429523
:103F1000407F6F70642B608322952770587F522BEF
:103F2000518381529C4FDC012C9126952695269534
:103F300011968C9181708295880F807E282BAC81A0
:103F4000BD818C9182958770281B2F7357703E7F9F
:103F5000273050F0822F880F880F880F582B5183FD
:103F600022952695277055C058635183328328CFF8
:103F70004E5F4F73642F660F660F660F2770622BBC
:103F80006583542F5295569557707E7F572B5683D5
:103F9000423108F415CFDC01A052BC4F2C9126957C
:103FA00027702B830081202F22952F707181472F3E
:103FB00047704295407F242B4B81240F422F42951E
:103FC000407F0F70042B008322952770787F722B1F
:103FD00071832C9122952770DC01A152BC4F8C91EA
:103FE00086958695869511969C9191709295990FDC
:103FF000907E892B280F2F737770263360F4822FE1
:10400000880F880F880F782B71832295269527704B
:104010003E7F322BABCF706B7183316067706583ED
:10402000852F8E7F8683317832835E705C3009F015
:10403000C7CE63E070E0C6010E94140EC1CE66EEEA
:1040400073E08EED93E00E94F80C6EED73E086EE67
:1040500093E00E94F80C8091E603837011F482E0F3
:1040600005C08091DE03837029F483E08093B5035B
:104070001092B0033091E403932F991F9927991F51
:104080002091E503822F8F70880F892B8F5F8F71AE
:104090003F77922F907F8A3048F4282F2795222748
:1040A0002795322B3093E403869508C03093E403C0
:1040B00080E1890F982F9077822F8078892B8093C9
:1040C000E5034DE25EE061E08EED93E00E94A60B19
:1040D0002091EC03922F991F9927991F3091ED039E
:1040E000832F8F70880F892B8F5F8F718A3040F4F8
:1040F00080FB27F92093EC038695307F832B0DC03E
:104100002F772093EC03932F92959F709F5F97706A
:104110009295907F832F8078892B8093ED034DE2D9
:104120005EE060E086EE93E00E94A60B0E9490168F
:10413000D7CB80E40E940017882379F040E550E057
:1041400060E070E08EE591E00E945D0E82E090E01C
:104150000E94EC0D62E070E02ACC80E80E9400171B
:10416000882309F428CC8091E003807709F023CCE0
:1041700040E550E060E070E082E791E00E945D0E73
:1041800086E090E00E94EC0D66E070E08EED93E03A
:104190000E94140E8091E003829587708E5F8630B6
:1041A00008F085E08770982F9295907F8091E003CA
:1041B0008F78892B8093E0038091E303877080934D
:1041C000E3038091E4038E7F8093E4030E94D5098A
:1041D00085FDE7CB0E94D50986FDB8CFECCB40E545
:1041E00050E060E070E08CE791E00E945D0E85E0B9
:1041F00090E00E94EC0D65E070E08EED93E00E948F
:10420000140E2091E20320718091E3038C7F826081
:104210008093E3033091DE03832F82958F7040916A
:10422000DF039091E003206632FD07C0542F5770E2
:104230005295507F852B8D5F06C0542F5770529535
:10424000507F852B835080FB97F99093E0038695F0
:10425000542F569556955695492F41704295440FC7
:10426000407E452B4650942F9295990F990F907C44
:104270008F73892B8093E103469546954F70242BCD
:104280002093E20332FB332730F98091E20330FBC5
:1042900084F98093E20363CB0E94770BBACB0F9330
:1042A0001F93CF93DF938C018AE090E00E94E1217D
:1042B0009FEF980F9E3F58F522E330E0D8015796C4
:1042C0003C932E93569728E330E059963C932E93D7
:1042D0005897CBE0D0E0D801ED91FC910190F081AE
:1042E000E02D682FC8010995CE010E94E121219699
:1042F000C131D10581F70E940B176CED75E080E0AC
:1043000090E0DF91CF911F910F910C945E07DF91A8
:10431000CF911F910F91089504970C944F21EFEEC8
:10432000F7E01382128288EE93E0A0E0B0E084838D
:104330009583A683B7838EE191E0918380838FEF8D
:104340009FEF95878487E2E4F8E01382128211865A
:10435000128680E1838710861782108A118A128A5A
:10436000138A148A8EE291E09183808388E391E03E
:1043700095838483178A168A118E108E81E0828F2E
:10438000138E848F158E8AE597E090934008809372
:104390003F080895991B79E004C0991F961708F00B
:1043A000961B881F7A95C9F780950895EE0FFF1F19
:1043B0000590F491E02D099481E090E0F8940C943C
:1043C0005222F999FECF92BD81BDF89A992780B506
:1043D0000895262FF999FECF1FBA92BD81BD20BD49
:1043E0000FB6F894FA9AF99A0FBE01960895052E21
:1043F00097FB1EF400940E940E2257FD07D00E94E6
:10440000212207FC03D04EF40C940E2250954095C7
:10441000309521953F4F4F4F5F4F08959095809570
:10442000709561957F4F8F4F9F4F08950E94432253
:10443000A59F900DB49F900DA49F800D911D1124F8
:104440000895A1E21A2EAA1BBB1BFD010DC0AA1FD5
:10445000BB1FEE1FFF1FA217B307E407F50720F0ED
:10446000A21BB30BE40BF50B661F771F881F991F68
:104470001A9469F760957095809590959B01AC01B1
:10448000BD01CF010895A29FB001B39FC001A39FBA
:10449000700D811D1124911DB29F700D811D11247D
:0844A000911D0895F894FFCF6F
:1044A800FFFFFFFF00E10000000000000101000025
:1044B80000030100C1808100000000000000A81076
:1044C8001711C910A311C111BE1000000000820A03
:1044D8007D104F21FCFF00008C214C4556454C2097
:0844E80000204245535420005E
:00000001FF
